:100000000C942A000C9439070C9489070C94D90796
:100010000C9447000C9447000C9447000C94470044
:100020000C9447000C9447000C9447000C94470034
:100030000C9447000C9447000C9447000C94470024
:100040000C9447000C9447000C9447000C94470014
:100050000C94470011241FBECFE5D8E0DEBFCDBF12
:1000600010E0A0E6B0E0E2EFF6E202C005900D92EB
:10007000A63CB107D9F710E0A6ECB0E001C01D9294
:10008000AC3CB107E1F70E94E6120C9477130C9494
:100090000000EF92FF920F931F937B018C0120E0F1
:1000A00030E040E05FE40E94490388238CF0C801FF
:1000B000B70120E030E040E05FE40E94C1010E940F
:1000C000A9039B01AC01205030404040504806C07D
:1000D000C801B7010E94A9039B01AC01B901CA0183
:1000E0001F910F91FF90EF900895A0E0B0E0EBE733
:1000F000F0E00C944013DC012B01FA019C9192304A
:1001000008F439C1EB018881823008F433C194309E
:1001100069F4843009F02FC111969C91119789815F
:10012000981709F428C1A6EAB0E025C1843009F483
:1001300021C18230A9F4923009F01DC19A01AD01AC
:1001400088E0EA010990AE01E90109929E0181501F
:10015000C1F7E201898111969C918923818308C1AD
:10016000923009F407C112962D903C901397EB0141
:100170008A819B811496AD90BD90CD90DC901797AD
:10018000EC80FD800E811F819101281B390BB90184
:1001900037FF04C066277727621B730B6032710537
:1001A0000CF061C0121613066CF537014801062EDB
:1001B00004C096948794779467940A94D2F721E0C8
:1001C00030E040E050E004C0220F331F441F551FB1
:1001D0006A95D2F721503040404050402E213F21B7
:1001E00040235123211531054105510521F021E01E
:1001F00030E040E050E079018A01E628F72808293C
:1002000019293CC0232BD1F1260E371E350146019A
:10021000062E04C096948794779467940A94D2F734
:1002200021E030E040E050E004C0220F331F441FC3
:10023000551F6A95D2F721503040404050402A2146
:100240003B214C215D21211531054105510521F04E
:1002500021E030E040E050E059016A01A628B728CB
:10026000C828D9280BC0821593052CF01C01AA249C
:10027000BB24650103C0EE24FF24870111969C91E5
:10028000D20111968C91981709F445C0992339F041
:10029000A80197012A193B094C095D0906C0A6016E
:1002A00095012E193F09400B510B57FD08C01182D3
:1002B0003382228224833583468357831DC081E0A5
:1002C00081833382228288279927DC01821B930B4A
:1002D000A40BB50B84839583A683B7830DC0220F2F
:1002E000331F441F551F24833583468357838281E0
:1002F000938101979383828324813581468157813D
:10030000DA01C9010197A109B1098F5F9F4FAF4F72
:10031000BF4328F30BC0918333822282EA0CFB1C7B
:100320000C1D1D1DE482F5820683178383E0808304
:10033000248135814681578157FF1AC0C901AA27F8
:1003400097FDA095BA2F81709070A070B0705695EF
:10035000479537952795822B932BA42BB52B848318
:100360009583A683B7838281938101969383828349
:10037000DF0101C0D201CD01CDB7DEB7E2E10C94BF
:100380005C13A0E2B0E0E7ECF1E00C944C1369835D
:100390007A838B839C832D833E834F835887E9E048
:1003A000EE2EF12CEC0EFD1ECE010196B7010E943F
:1003B000D2048E010F5E1F4FCE010596B8010E9438
:1003C000D2048A8991E089278A8BC701B801AE01DE
:1003D000475E5F4F0E9475000E94FD03A096E6E015
:1003E0000C946813A0E2B0E0E8EFF1E00C944C1339
:1003F00069837A838B839C832D833E834F835887C5
:10040000F9E0EF2EF12CEC0EFD1ECE010196B701A6
:100410000E94D2048E010F5E1F4FCE010596B801D7
:100420000E94D204C701B801AE01475E5F4F0E942F
:1004300075000E94FD03A096E6E00C946813A0E20C
:10044000B0E0E5E2F2E00C94401369837A838B8399
:100450009C832D833E834F835887CE010196BE0136
:10046000675F7F4F0E94D204CE010596BE016F5E8A
:100470007F4F0E94D2049985923088F0898982301A
:10048000C8F0943019F4823051F404C0843029F457
:10049000923081F486EA90E0C6C0923049F420E0C0
:1004A0009A858A89981321E02A87CE010996BBC0D4
:1004B000823049F420E09A858A89981321E02A8BBA
:1004C000CE014196B0C02D843E844F8458886D88FB
:1004D0007E888F88988CEE24FF248701AA24BB2471
:1004E000650140E050E060E070E0E0E0F0E0C10174
:1004F00081709070892BE9F0E60CF71C081D191D1E
:100500009A01AB012A0D3B1D4C1D5D1D80E090E062
:10051000A0E0B0E0E614F7040805190520F481E036
:1005200090E0A0E0B0E0BA01A901480F591F6A1F8E
:100530007B1FAA0CBB1CCC1CDD1C97FE08C081E0F5
:1005400090E0A0E0B0E0A82AB92ACA2ADB2A3196B6
:10055000E032F10549F0660C771C881C991C569412
:10056000479437942794C3CFFA85EA892B893C892D
:100570008B859C85280F391F2E5F3F4F17C0CA01FE
:1005800081709070892B61F016950795F794E79428
:1005900080E090E0A0E0B0E8E82AF92A0A2B1B2BC3
:1005A00076956795579547952F5F3F4F77FDE7CF36
:1005B0000CC0440F551F661F771F17FD4160EE0CDE
:1005C000FF1C001F111F21503040403090E05907A0
:1005D00090E0690790E4790760F32B8F3C8FDB0193
:1005E000CA018F779070A070B07080349105A1051A
:1005F000B10561F447FD0AC0E114F10401051105DC
:1006000029F0405C5F4F6F4F7F4F40781A8EFE1786
:1006100011F081E08A8F4D8F5E8F6F8F78A383E01A
:10062000898FCE0149960E94FD03A096E2E10C94C9
:100630005C13A8E1B0E0EFE1F3E00C944C136983A4
:100640007A838B839C832D833E834F83588789E0F5
:10065000E82EF12CEC0EFD1ECE010196B7010E9492
:10066000D2048E010F5E1F4FCE010596B8010E9485
:10067000D2048985823040F08989823028F0C70110
:10068000B8010E944A0501C08FEF6896E6E00C941D
:100690006813A8E1B0E0EFE4F3E00C944C13698335
:1006A0007A838B839C832D833E834F83588789E095
:1006B000E82EF12CEC0EFD1ECE010196B7010E9432
:1006C000D2048E010F5E1F4FCE010596B8010E9425
:1006D000D2048985823040F08989823028F0C701B0
:1006E000B8010E944A0501C08FEF6896E6E00C94BD
:1006F0006813A8E1B0E0EFE7F3E00C944C136983D2
:100700007A838B839C832D833E834F83588789E034
:10071000E82EF12CEC0EFD1ECE010196B7010E94D1
:10072000D2048E010F5E1F4FCE010596B8010E94C4
:10073000D2048985823040F08989823028F0C7014F
:10074000B8010E944A0501C081E06896E6E00C9479
:100750006813ACE0B0E0EFEAF3E00C945013698367
:100760007A838B839C83CE010196BE016B5F7F4FA2
:100770000E94D2048D81823061F1823050F1843048
:1007800021F48E81882351F12EC02F81388537FDC9
:1007900020C06E812F3131051CF06623F9F023C093
:1007A0008EE190E0821B930B29853A854B855C8511
:1007B00004C056954795379527958A95D2F76623B5
:1007C000B1F050954095309521953F4F4F4F5F4F79
:1007D0000EC020E030E040E050E009C02FEF3FEFD6
:1007E0004FEF5FE704C020E030E040E050E8B9019F
:1007F000CA012C96E2E00C946C13DF92EF92FF9208
:100800000F931F93FC01E480F58006811781D1804E
:100810008081823048F480E090E0A0E1B0E0E82AF6
:10082000F92A0A2B1B2BA5C0843009F49FC0823003
:1008300021F4EE24FF24870105C0E114F104010531
:10084000110519F4E0E0F0E096C0628173819FEF3A
:10085000623879070CF05BC022E83FEF261B370BAC
:100860002A3131052CF020E030E040E050E02AC091
:10087000B801A701022E04C0769567955795479554
:100880000A94D2F781E090E0A0E0B0E004C0880FC5
:10089000991FAA1FBB1F2A95D2F70197A109B10979
:1008A0008E219F21A023B1230097A105B10521F03E
:1008B00081E090E0A0E0B0E09A01AB01282B392B59
:1008C0004A2B5B2BDA01C9018F779070A070B07052
:1008D00080349105A105B10539F427FF09C0205CDA
:1008E0003F4F4F4F5F4F04C0215C3F4F4F4F5F4F13
:1008F000E0E0F0E02030A0E03A07A0E04A07A0E402
:100900005A0710F0E1E0F0E079018A0127C0603871
:10091000710564F5FB01E158FF4FD801C7018F77DE
:100920009070A070B07080349105A105B10539F4C4
:10093000E7FE0DC080E490E0A0E0B0E004C08FE3EB
:1009400090E0A0E0B0E0E80EF91E0A1F1B1F17FFA1
:1009500005C016950795F794E794319687E01695AC
:100960000795F794E7948A95D1F705C0EE24FF2404
:100970008701EFEFF0E06E2F679566276795902F60
:100980009F77D794DD24D7948E2F8695492F462BB9
:10099000582F5D29B701CA011F910F91FF90EF9069
:1009A000DF900895FC01DB01408151812281622F9B
:1009B0006F7770E0221F2227221F9381892F880FD3
:1009C000822B282F30E0991F9927991F11969C930D
:1009D000119721153105A9F54115510561057105DD
:1009E00011F482E037C082E89FEF13969C938E93B8
:1009F00012979A01AB0167E0220F331F441F551F66
:100A00006A95D1F783E08C930DC0220F331F441FEA
:100A1000551F12968D919C911397019713969C9355
:100A20008E931297203080E0380780E0480780E4FA
:100A3000580758F314962D933D934D935C93179755
:100A400008952F3F310579F4411551056105710570
:100A500019F484E08C93089564FF03C081E08C93C3
:100A600012C01C9210C02F57304013963C932E9307
:100A7000129783E08C9387E0440F551F661F771F02
:100A80008A95D1F7706414964D935D936D937C9322
:100A9000179708951F93DC01FB019C91923008F495
:100AA00047C08081823008F443C0943051F41196DD
:100AB0001C91843099F58181682F70E0611B710968
:100AC0003FC0843021F0923031F48230B9F181811D
:100AD000882389F12DC011961C9111978230F1F075
:100AE00081811817D9F412962D913C911397828128
:100AF00093818217930794F028173907BCF0149656
:100B00008D919D910D90BC91A02D248135814681C0
:100B10005781281739074A075B0718F4112341F05A
:100B20000AC082179307A407B50740F4112319F0F0
:100B300061E070E005C06FEF7FEF02C060E070E041
:100B4000CB011F910895DF93CF93CDB7DEB7AFE50B
:100B5000B0E0EFE5F0E0808180688C93CF91DF9189
:100B60000895DF93CF93CDB7DEB7AFE5B0E0EFE503
:100B7000F0E080818F778C93CF91DF910895DF93A0
:100B8000CF93CDB7DEB7ABE5B0E0EBE5F0E0808129
:100B900080648C93A5E5B0E0E5E5F0E080818260BB
:100BA0008C93A5E5B0E0E5E5F0E0808181608C9371
:100BB000ABE5B0E0EBE5F0E0808180688C93A5E5E3
:100BC000B0E0E5E5F0E0808188608C93A5E5B0E0D9
:100BD000E5E5F0E0808184608C93ABE5B0E0EBE587
:100BE000F0E080818F7D8C93CF91DF910895DF932A
:100BF000CF9300D000D0CDB7DEB789838981282F6D
:100C000030E03C832B838B819C818130910509F4FA
:100C100042C02B813C81223031052CF48B819C8198
:100C2000009751F147C02B813C812230310531F0D2
:100C30008B819C818330910581F03CC0A5E5B0E0BB
:100C4000E5E5F0E080818D7F8C93A5E5B0E0E5E5FA
:100C5000F0E080818E7F8C9330C0A5E5B0E0E5E5C3
:100C6000F0E080818D7F8C93A5E5B0E0E5E5F0E0D4
:100C7000808181608C9321C0A5E5B0E0E5E5F0E0DE
:100C8000808182608C93A5E5B0E0E5E5F0E08081AD
:100C90008E7F8C9312C0A5E5B0E0E5E5F0E08081A1
:100CA00082608C93A5E5B0E0E5E5F0E080818160AD
:100CB0008C9303C091E09A8308C0ABE5B0E0EBE50C
:100CC000F0E0808180648C931A828A810F900F906B
:100CD0000F900F90CF91DF910895DF93CF9300D0C5
:100CE00000D0CDB7DEB789838981282F30E03C83DF
:100CF0002B838B819C818130910509F442C02B812B
:100D00003C81223031052CF48B819C81009751F17C
:100D100047C02B813C812230310531F08B819C8191
:100D20008330910581F03CC0A5E5B0E0E5E5F0E059
:100D30008081877F8C93A5E5B0E0E5E5F0E08081D8
:100D40008B7F8C9330C0A5E5B0E0E5E5F0E08081D5
:100D5000877F8C93A5E5B0E0E5E5F0E080818460D5
:100D60008C9321C0A5E5B0E0E5E5F0E080818860E6
:100D70008C93A5E5B0E0E5E5F0E080818B7F8C9376
:100D800012C0A5E5B0E0E5E5F0E0808188608C93D5
:100D9000A5E5B0E0E5E5F0E0808184608C9303C0D8
:100DA00091E09A8308C0ABE5B0E0EBE5F0E080812C
:100DB00080688C931A828A810F900F900F900F9009
:100DC000CF91DF910895DF93CF9300D000D0CDB7BE
:100DD000DEB789838981282F30E03C832B838B8188
:100DE0009C81009731F02B813C812130310549F005
:100DF00010C0A4E5B0E0E4E5F0E080818F7B8C9347
:100E00000BC0A4E5B0E0E4E5F0E0808180648C9361
:100E100003C031E03A8308C0ABE5B0E0EBE5F0E0B9
:100E2000808180628C931A828A810F900F900F903C
:100E30000F90CF91DF910895DF93CF9300D00F9261
:100E4000CDB7DEB79A83898389819A81009741F073
:100E500089819A819093C7008093C6001B8202C04B
:100E600081E08B838B810F900F900F90CF91DF915A
:100E700008951F920F920FB60F9211242F933F9354
:100E80004F935F936F937F938F939F93AF93BF9392
:100E9000EF93FF93DF93CF93CDB7DEB78091C6007A
:100EA0009091C700009729F0E091C600F091C7002B
:100EB0000995CF91DF91FF91EF91BF91AF919F91F4
:100EC0008F917F916F915F914F913F912F910F90F3
:100ED0000FBE0F901F901895DF93CF9300D00F9205
:100EE000CDB7DEB79A83898389819A81009741F0D3
:100EF00089819A819093C9008093C8001B8202C0A7
:100F000081E08B838B810F900F900F90CF91DF91B9
:100F100008951F920F920FB60F9211242F933F93B3
:100F20004F935F936F937F938F939F93AF93BF93F1
:100F3000EF93FF93DF93CF93CDB7DEB78091C800D7
:100F40009091C900009729F0E091C800F091C90084
:100F50000995CF91DF91FF91EF91BF91AF919F9153
:100F60008F917F916F915F914F913F912F910F9052
:100F70000FBE0F901F901895DF93CF9300D00F9264
:100F8000CDB7DEB79A83898389819A81009741F032
:100F900089819A819093CB008093CA001B8202C002
:100FA00081E08B838B810F900F900F90CF91DF9119
:100FB00008951F920F920FB60F9211242F933F9313
:100FC0004F935F936F937F938F939F93AF93BF9351
:100FD000EF93FF93DF93CF93CDB7DEB78091CA0035
:100FE0009091CB00009729F0E091CA00F091CB00DE
:100FF0000995CF91DF91FF91EF91BF91AF919F91B3
:101000008F917F916F915F914F913F912F910F90B1
:101010000FBE0F901F901895DF93CF93CDB7DEB71B
:1010200027970FB6F894DEBF0FBECDBF89836A83C2
:101030004B838B81882309F074C08981282F30E08D
:101040003F832E838E819F818130910559F12E81BE
:101050003F81223031052CF48E819F81009769F009
:10106000D2C02E813F812230310589F18E819F814E
:101070008330910509F440C0C6C0AAE3B0E0EAE3BA
:10108000F0E08081482F8A81282F30E081E090E0D5
:10109000022E02C0880F991F0A94E2F780958423DC
:1010A0008C93B1C0A7E3B0E0E7E3F0E08081482F84
:1010B0008A81282F30E081E090E0022E02C0880F64
:1010C000991F0A94E2F7809584238C939CC0A4E333
:1010D000B0E0E4E3F0E08081482F8A81282F30E0FF
:1010E00081E090E0022E02C0880F991F0A94E2F777
:1010F000809584238C9387C0A1E3B0E0E1E3F0E026
:101100008081482F8A81282F30E081E090E0022EF4
:1011100002C0880F991F0A94E2F7809584238C936C
:1011200072C08B81813009F06EC08981282F30E038
:101130003D832C838C819D818130910549F12C81E7
:101140003D81223031052CF48C819D81009761F026
:101150005AC02C813D812230310571F18C819D81F5
:1011600083309105E9F14FC0AAE3B0E0EAE3F0E093
:101170008081482F8A81282F30E081E090E0022E84
:1011800002C0880F991F0A94E2F7842B8C933BC00E
:10119000A7E3B0E0E7E3F0E08081482F8A81282FC1
:1011A00030E081E090E0022E02C0880F991F0A947F
:1011B000E2F7842B8C9327C0A4E3B0E0E4E3F0E0F3
:1011C0008081482F8A81282F30E081E090E0022E34
:1011D00002C0880F991F0A94E2F7842B8C9313C0E6
:1011E000A1E3B0E0E1E3F0E08081482F8A81282F7D
:1011F00030E081E090E0022E02C0880F991F0A942F
:10120000E2F7842B8C9327960FB6F894DEBF0FBEBF
:10121000CDBFCF91DF910895DF93CF93CDB7DEB7E8
:1012200027970FB6F894DEBF0FBECDBF89836A83C0
:101230004B838B81882309F074C08981282F30E08B
:101240003F832E838E819F818130910559F12E81BC
:101250003F81223031052CF48E819F81009769F007
:10126000D2C02E813F812230310589F18E819F814C
:101270008330910509F440C0C6C0ABE3B0E0EBE3B6
:10128000F0E08081482F8A81282F30E081E090E0D3
:10129000022E02C0880F991F0A94E2F780958423DA
:1012A0008C93B1C0A8E3B0E0E8E3F0E08081482F80
:1012B0008A81282F30E081E090E0022E02C0880F62
:1012C000991F0A94E2F7809584238C939CC0A5E330
:1012D000B0E0E5E3F0E08081482F8A81282F30E0FC
:1012E00081E090E0022E02C0880F991F0A94E2F775
:1012F000809584238C9387C0A2E3B0E0E2E3F0E022
:101300008081482F8A81282F30E081E090E0022EF2
:1013100002C0880F991F0A94E2F7809584238C936A
:1013200072C08B81813009F06EC08981282F30E036
:101330003D832C838C819D818130910549F12C81E5
:101340003D81223031052CF48C819D81009761F024
:101350005AC02C813D812230310571F18C819D81F3
:1013600083309105E9F14FC0ABE3B0E0EBE3F0E08F
:101370008081482F8A81282F30E081E090E0022E82
:1013800002C0880F991F0A94E2F7842B8C933BC00C
:10139000A8E3B0E0E8E3F0E08081482F8A81282FBD
:1013A00030E081E090E0022E02C0880F991F0A947D
:1013B000E2F7842B8C9327C0A5E3B0E0E5E3F0E0EF
:1013C0008081482F8A81282F30E081E090E0022E32
:1013D00002C0880F991F0A94E2F7842B8C9313C0E4
:1013E000A2E3B0E0E2E3F0E08081482F8A81282F79
:1013F00030E081E090E0022E02C0880F991F0A942D
:10140000E2F7842B8C9327960FB6F894DEBF0FBEBD
:10141000CDBFCF91DF910895DF93CF9300D000D05F
:1014200000D0CDB7DEB789836A835C834B83898123
:10143000282F30E03E832D834D815E814130510560
:1014400059F18D819E818230910534F42D813E8148
:101450002115310569F05BC04D815E814230510537
:1014600079F18D819E818330910509F43DC04FC093
:10147000E9E3F0E08081282F30E08A81882F90E036
:10148000A90102C0559547958A95E2F7CA01817076
:10149000EB81FC8180833BC0E6E3F0E08081282F74
:1014A00030E08A81882F90E0A90102C055954795C8
:1014B0008A95E2F7CA018170EB81FC81808327C0A5
:1014C000E3E3F0E08081282F30E08A81882F90E0EC
:1014D000A90102C0559547958A95E2F7CA01817026
:1014E000EB81FC81808313C0E0E3F0E08081282F52
:1014F00030E08A81882F90E0A90102C05595479578
:101500008A95E2F7CA018170EB81FC81808326967F
:101510000FB6F894DEBF0FBECDBFCF91DF91089517
:10152000DF93CF9300D000D000D0CDB7DEB7898352
:101530006A838A81813099F58981282F30E03E8342
:101540002D838D819E8181309105D1F02D813E8149
:10155000223031052CF48D819E81009761F050C0BE
:101560002D813E812230310581F08D819E81833035
:10157000910581F045C0EAE3F0E08FEF808340C041
:10158000E7E3F0E08FEF80833BC0E4E3F0E08FEF30
:10159000808336C0E1E3F0E08FEF808331C08A8141
:1015A000882371F58981282F30E03C832B838B8140
:1015B0009C8181309105C9F02B813C81223031051D
:1015C0002CF48B819C81009761F01AC02B813C81A7
:1015D0002230310571F08B819C818330910569F057
:1015E0000FC0EAE3F0E010820BC0E7E3F0E0108206
:1015F00007C0E4E3F0E0108203C0E1E3F0E0108212
:1016000026960FB6F894DEBF0FBECDBFCF91DF9107
:101610000895DF93CF9300D000D0CDB7DEB7898394
:101620006A838981282F30E03C832B838B819C81C6
:1016300081309105D1F02B813C81223031052CF491
:101640008B819C81009761F01EC02B813C812230F0
:10165000310581F08B819C818330910581F013C02D
:10166000EBE3F0E08A8180830EC0E8E3F0E08A815A
:10167000808309C0E5E3F0E08A81808304C0E2E36F
:10168000F0E08A8180830F900F900F900F90CF91A0
:10169000DF910895DF93CF9300D000D00F92CDB7A4
:1016A000DEB789837B836A838981282F30E03D837D
:1016B0002C838C819D8181309105E1F02C813D81CD
:1016C000223031052CF48C819D81009761F026C079
:1016D0002C813D8122303105A1F08C819D818330A8
:1016E0009105B1F01BC0EBE3F0E08081EA81FB8162
:1016F000808314C0E8E3F0E08081EA81FB8180838D
:101700000DC0E5E3F0E08081EA81FB81808306C0C3
:10171000E2E3F0E08081EA81FB8180830F900F900B
:101720000F900F900F90CF91DF910895DF93CF939B
:1017300000D00F92CDB7DEB789836A834B830F90B9
:101740000F900F90CF91DF910895DF93CF93CDB796
:10175000DEB72F970FB6F894DEBF0FBECDBF8F87D1
:1017600080E065E041E00E940C0980E066E040E036
:101770000E940C0981E06F850E94090B80E067E000
:1017800041E00E940C0980E090E0A0E4B0E48B8787
:101790009C87AD87BE876B857C858D859E8520E087
:1017A00030E04AEF54E40E941F02DC01CB018F833A
:1017B0009887A987BA876F81788589859A8520E07F
:1017C00030E040E85FE30E94790388232CF481E055
:1017D00090E09E838D833FC06F81788589859A854F
:1017E00020E03FEF4FE757E40E94190318164CF52D
:1017F0006B857C858D859E8520E030E040E251E45C
:101800000E941F02DC01CB01BC01CD010E944900F6
:10181000DC01CB019E838D830FC088EC90E09C831C
:101820008B838B819C810197F1F79C838B838D81C6
:101830009E8101979E838D838D819E81009769F79C
:1018400014C06F81788589859A850E944900DC01E2
:10185000CB019E838D838D819E819A83898389812B
:101860009A810197F1F79A83898380E067E040E0ED
:101870000E940C092F960FB6F894DEBF0FBECDBFA5
:10188000CF91DF910895DF93CF93CDB7DEB72F9738
:101890000FB6F894DEBF0FBECDBF8F8780E065E046
:1018A00040E00E940C0980E066E040E00E940C09E4
:1018B00081E06F850E94090B80E067E041E00E94B3
:1018C0000C0980E090E0A0E4B0E48B879C87AD87B2
:1018D000BE876B857C858D859E8520E030E04AEF54
:1018E00054E40E941F02DC01CB018F839887A987F3
:1018F000BA876F81788589859A8520E030E040E855
:101900005FE30E94790388232CF481E090E09E83BA
:101910008D833FC06F81788589859A8520E03FEF70
:101920004FE757E40E94190318164CF56B857C8528
:101930008D859E8520E030E040E251E40E941F0248
:10194000DC01CB01BC01CD010E944900DC01CB01CF
:101950009E838D830FC088EC90E09C838B838B816A
:101960009C810197F1F79C838B838D819E810197E8
:101970009E838D838D819E81009769F714C06F814E
:10198000788589859A850E944900DC01CB019E8378
:101990008D838D819E819A83898389819A81019724
:1019A000F1F79A83898380E067E040E00E940C09A8
:1019B0002F960FB6F894DEBF0FBECDBFCF91DF914B
:1019C0000895DF93CF93CDB7DEB76C970FB6F89439
:1019D000DEBF0FBECDBF80E090E0A0E2B2E4898F11
:1019E0009A8FAB8FBC8F698D7A8D8B8D9C8D20E00B
:1019F00030E04AEF54E40E941F02DC01CB018D8BE2
:101A00009E8BAF8BB88F6D897E898F89988D20E0F2
:101A100030E040E85FE30E94790388232CF481E002
:101A200090E09C8B8B8B3FC06D897E898F89988DD0
:101A300020E03FEF4FE757E40E94190318164CF5DA
:101A4000698D7A8D8B8D9C8D20E030E040E251E4F1
:101A50000E941F02DC01CB01BC01CD010E944900A4
:101A6000DC01CB019C8B8B8B0FC088EC90E09A8BB8
:101A7000898B89899A890197F1F79A8B898B8B8950
:101A80009C8901979C8B8B8B8B899C89009769F72C
:101A900014C06D897E898F89988D0E944900DC0170
:101AA000CB019C8B8B8B8B899C89988B8F878F85A7
:101AB00098890197F1F7988B8F878CE30E94430CEC
:101AC00080E090E0A0E8BFE38B879C87AD87BE876E
:101AD0006B857C858D859E8520E030E04AEF54E45F
:101AE0000E941F02DC01CB018F839887A987BA87E8
:101AF0006F81788589859A8520E030E040E85FE352
:101B00000E94790388232CF481E090E09E838D83EA
:101B10003FC06F81788589859A8520E03FEF4FE748
:101B200057E40E94190318164CF56B857C858D854A
:101B30009E8520E030E040E251E40E941F02DC017B
:101B4000CB01BC01CD010E944900DC01CB019E8389
:101B50008D830FC088EC90E09C838B838B819C816C
:101B60000197F1F79C838B838D819E8101979E83E2
:101B70008D838D819E81009769F714C06F81788570
:101B800089859A850E944900DC01CB019E838D8363
:101B90008D819E819A83898389819A810197F1F74A
:101BA0009A8389838CE00E94430C81E00E94430C5D
:101BB0006C960FB6F894DEBF0FBECDBFCF91DF910C
:101BC0000895DF93CF93CDB7DEB781E00E94430C39
:101BD000CF91DF910895DF93CF9300D0CDB7DEB7DB
:101BE00089836A838981813019F48A81805C8A8340
:101BF0008A8180580E94430C0F900F90CF91DF9103
:101C00000895DF93CF93CDB7DEB727970FB6F8943B
:101C1000DEBF0FBECDBF9C838B836D834E832F832E
:101C20008D81882F90E0880F991F880F991F880F4A
:101C3000991F8A838A81805C0E94430C19820EC09E
:101C40008981282F30E08B819C81FC01E20FF31FFA
:101C500080810E94A50B89818F5F8983898188306B
:101C600078F38E816F810E94EB0D8D810E94A50B10
:101C700027960FB6F894DEBF0FBECDBFCF91DF9190
:101C80000895DF93CF9300D0CDB7DEB79A838983D1
:101C900089819A810097A1F089819A812AE030E0B8
:101CA000B9010E942C13CB010E94410E89819A81B7
:101CB0002AE030E0B9010E942C13805D0E94A50B40
:101CC0000F900F90CF91DF910895DF93CF9300D0C5
:101CD000CDB7DEB79A8389830AC0E981FA81808112
:101CE0000E94A50B89819A8101969A838983E98153
:101CF000FA818081882389F70F900F90CF91DF912F
:101D00000895DF93CF93CDB7DEB781E060E041E087
:101D10000E940C0881E061E041E00E940C0881E033
:101D200062E041E00E940C0881E063E041E00E9433
:101D30000C0880E060E040E00E940C0880E061E078
:101D400040E00E940C0880E062E040E00E940C0845
:101D500080E063E040E00E940C0880E06FE00E94B9
:101D6000090BCF91DF910895DF93CF93CDB7DEB705
:101D7000A8970FB6F894DEBF0FBECDBFCE01429636
:101D80009DA38CA3E6EBF0E0FFA3EEA3F0E1F8A7A0
:101D9000EEA1FFA100808EA19FA101969FA38EA31B
:101DA000ECA1FDA100828CA19DA101969DA38CA315
:101DB00098A5915098A7E8A5EE2351F7188AD3C0AB
:101DC0008889882F90E0FC01E255FF4F908181E0E7
:101DD000692F40E00E940C091F86B2C08F85882FB2
:101DE00090E0FC01EE54FF4F90819E012E5D3F4F2D
:101DF00080E0692FA9010E940C0A8AA1882309F0BA
:101E00009CC080E090E0A8E4B3E48B879C87AD871A
:101E1000BE876B857C858D859E8520E030E04AEF0E
:101E200054E40E941F02DC01CB018F839887A987AD
:101E3000BA876F81788589859A8520E030E040E80F
:101E40005FE30E94790388232CF481E090E09E8375
:101E50008D833FC06F81788589859A8520E03FEF2B
:101E60004FE757E40E94190318164CF56B857C85E3
:101E70008D859E8520E030E040E251E40E941F0203
:101E8000DC01CB01BC01CD010E944900DC01CB018A
:101E90009E838D830FC088EC90E09C838B838B8125
:101EA0009C810197F1F79C838B838D819E810197A3
:101EB0009E838D838D819E81009769F714C06F8109
:101EC000788589859A850E944900DC01CB019E8333
:101ED0008D838D819E819A83898389819A810197DF
:101EE000F1F79A8389838F85282F30E08889482FDE
:101EF00050E0220F331F220F331FCE010196820FB5
:101F0000931F840F951FFC0171968081898B0FC0F0
:101F10008F85882F90E0FC01EE54FF4F90819E0149
:101F20002E5D3F4F80E0692FA9010E940C0A8AA113
:101F3000882371F3F989FBA31CC08F858F5F8F877E
:101F40008F85843008F44ACF8889882F90E0FC017F
:101F5000E255FF4F908181E0692F41E00E940C091A
:101F600088898F5F888B8889843008F429CF85E63B
:101F70008BA38BA1A8960FB6F894DEBF0FBECDBF82
:101F8000CF91DF910895DF93CF93CDB7DEB72E9732
:101F90000FB6F894DEBF0FBECDBF0E94A3050E940E
:101FA000E10D80E063E00E94EB0D80E690E00E948E
:101FB000650E81E060E00E94EB0D89E690E00E94F2
:101FC000650E82E060E041E00E940C0982E061E081
:101FD00041E00E940C0982E062E041E00E940C09AD
:101FE00082E063E041E00E940C0980E090E0AAEF0B
:101FF000B4E48B879C87AD87BE876B857C858D8598
:102000009E8520E030E04AEF54E40E941F02DC018C
:10201000CB018F839887A987BA876F817885898557
:102020009A8520E030E040E85FE30E94790388234E
:102030002CF481E090E09E838D833FC06F81788592
:1020400089859A8520E03FEF4FE757E40E94190306
:1020500018164CF56B857C858D859E8520E030E0DB
:1020600040E251E40E941F02DC01CB01BC01CD0122
:102070000E944900DC01CB019E838D830FC088EC58
:1020800090E09C838B838B819C810197F1F79C83EB
:102090008B838D819E8101979E838D838D819E810F
:1020A000009769F714C06F81788589859A850E94A9
:1020B0004900DC01CB019E838D838D819E819A83B3
:1020C000898389819A810197F1F79A83898382E0D4
:1020D00060E040E00E940C0982E061E040E00E9484
:1020E0000C0982E062E040E00E940C0982E063E0BB
:1020F00040E00E940C090E94E10D2E960FB6F89464
:10210000DEBF0FBECDBFCF91DF910895DF93CF9398
:10211000CDB7DEB7E8970FB6F894DEBF0FBECDBFE0
:102120000E94A305AAE5B0E0EAE5F0E080818068BE
:102130008C930E94E10D80E063E00E94EB0D80E64D
:1021400090E00E94650E81E060E00E94EB0D89E75F
:1021500090E00E94650E82E060E041E00E940C0980
:1021600080E090E0AAE7B4E48DAB9EABAFABB8AF34
:102170006DA97EA98FA998AD20E030E04AEF54E424
:102180000E941F02DC01CB0189AB9AABABABBCABAD
:1021900069A97AA98BA99CA920E030E040E85FE317
:1021A0000E94790388232CF481E090E098AB8FA7FC
:1021B0003FC069A97AA98BA99CA920E03FEF4FE70E
:1021C00057E40E94190318164CF56DA97EA98FA932
:1021D00098AD20E030E040E251E40E941F02DC01B3
:1021E000CB01BC01CD010E944900DC01CB0198ABC1
:1021F0008FA70FC088EC90E09EA78DA78DA59EA508
:102200000197F1F79EA78DA78FA598A9019798AB85
:102210008FA78FA598A9009769F714C069A97AA913
:102220008BA99CA90E944900DC01CB0198AB8FA728
:102230008FA598A99CA78BA78BA59CA50197F1F7C3
:102240009CA78BA782E060E040E00E940C0980E040
:1022500063E00E94EB0D80E690E00E94650E81E055
:1022600060E00E94EB0D89E790E00E94650E82E03D
:1022700061E041E00E940C0980E090E0AAE7B4E44C
:102280008FA398A7A9A7BAA76FA178A589A59AA592
:1022900020E030E04AEF54E40E941F02DC01CB0151
:1022A0008BA39CA3ADA3BEA36BA17CA18DA19EA17A
:1022B00020E030E040E85FE30E94790388232CF4BB
:1022C00081E090E09AA389A33FC06BA17CA18DA17E
:1022D0009EA120E03FEF4FE757E40E941903181634
:1022E0004CF56FA178A589A59AA520E030E040E2E1
:1022F00051E40E941F02DC01CB01BC01CD010E9410
:102300004900DC01CB019AA389A30FC088EC90E0BF
:1023100098A38F8F8F8D98A10197F1F798A38F8F36
:1023200089A19AA101979AA389A389A19AA100974B
:1023300069F714C06BA17CA18DA19EA10E944900E8
:10234000DC01CB019AA389A389A19AA19E8F8D8FCD
:102350008D8D9E8D0197F1F79E8F8D8F82E061E0CC
:1023600040E00E940C0980E063E00E94EB0D80E6F3
:1023700090E00E94650E81E060E00E94EB0D89E72D
:1023800090E00E94650E82E062E041E00E940C094C
:1023900080E090E0AAE7B4E4898F9A8FAB8FBC8F7E
:1023A000698D7A8D8B8D9C8D20E030E04AEF54E46E
:1023B0000E941F02DC01CB018D8B9E8BAF8BB88FEF
:1023C0006D897E898F89988D20E030E040E85FE359
:1023D0000E94790388232CF481E090E09C8B8B8B06
:1023E0003FC06D897E898F89988D20E03FEF4FE750
:1023F00057E40E94190318164CF5698D7A8D8B8D60
:102400009C8D20E030E040E251E40E941F02DC019C
:10241000CB01BC01CD010E944900DC01CB019C8BAA
:102420008B8B0FC088EC90E09A8B898B89899A8975
:102430000197F1F79A8B898B8B899C8901979C8BEB
:102440008B8B8B899C89009769F714C06D897E8975
:102450008F89988D0E944900DC01CB019C8B8B8B6E
:102460008B899C89988B8F878F8598890197F1F745
:10247000988B8F8782E062E040E00E940C0980E048
:1024800063E00E94EB0D80E690E00E94650E81E023
:1024900060E00E94EB0D89E790E00E94650E82E00B
:1024A00063E041E00E940C0980E090E0AAE7B4E418
:1024B0008B879C87AD87BE876B857C858D859E8548
:1024C00020E030E04AEF54E40E941F02DC01CB011F
:1024D0008F839887A987BA876F81788589859A8540
:1024E00020E030E040E85FE30E94790388232CF489
:1024F00081E090E09E838D833FC06F8178858985E0
:102500009A8520E03FEF4FE757E40E941903181621
:102510004CF56B857C858D859E8520E030E040E222
:1025200051E40E941F02DC01CB01BC01CD010E94DD
:102530004900DC01CB019E838D830FC088EC90E0C5
:102540009C838B838B819C810197F1F79C838B8388
:102550008D819E8101979E838D838D819E810097C1
:1025600069F714C06F81788589859A850E94490032
:10257000DC01CB019E838D838D819E819A8389832B
:1025800089819A810197F1F79A83898382E063E0D8
:1025900040E00E940C0980E063E00E94EB0D80E6C1
:1025A00090E00E94650E81E060E00E94EB0D89E7FB
:1025B00090E00E94650E0E94E10DE8960FB6F89437
:1025C000DEBF0FBECDBFCF91DF910895DF93CF93D4
:1025D000CDB7DEB782E061E00E94900A81E061E061
:1025E0000E94900A80E065E041E00E940C0880E0D3
:1025F00066E041E00E940C0880E067E041E00E9454
:102600000C0883E062E040E00E940C0883E063E095
:1026100040E00E940C080E94A3050E94BF0583ECC5
:102620009FE00E941C0786E890E10E946C070E94D0
:10263000E10C0E94E10D80E060E00E94EB0D89E872
:1026400090E00E94650E81E063E00E94EB0D89E955
:1026500090E00E94650EEFCFAA1BBB1B51E107C0A3
:10266000AA1FBB1FA617B70710F0A61BB70B881F22
:10267000991F5A95A9F780959095BC01CD010895B1
:102680002F923F924F925F926F927F928F929F9282
:10269000AF92BF92CF92DF92EF92FF920F931F9370
:1026A000CF93DF93CDB7DEB7CA1BDB0B0FB6F89421
:1026B000DEBF0FBECDBF09942A88398848885F8461
:1026C0006E847D848C849B84AA84B984C884DF80D2
:1026D000EE80FD800C811B81AA81B981CE0FD11DB6
:1026E0000FB6F894DEBF0FBECDBFED010895F8948C
:0226F000FFCF1A
:1026F20057656C636F6D6521004558544920302041
:1027020048616E646C652E2E004558544920312074
:1027120048616E646C652E2E0057656C636F6D6543
:1027220020746F204D5034210057617A65656661CF
:102732005F546563680000000000000000000001B3
:102742000203000102033738392F3435362A313279
:06275200332D43303D2B46
:00000001FF
